:020000040800F2
:1000000000A00020391E0008851E0008851E00087B
:10001000851E0008851E0008851E000800000000DF
:10002000000000000000000000000000851E000825
:10003000851E000800000000851E0008891F0008BA
:10004000851E0008851E0008851E0008851E000804
:10005000851E0008851E0008851E0008851E0008F4
:10006000851E0008851E0008851E0008851E0008E4
:10007000851E0008851E0008851E0008851E0008D4
:10008000851E0008851E00081D280008851E000822
:10009000ED130008851E0008851E0008851E000857
:1000A000851E0008851E0008851E0008851E0008A4
:1000B000851E0008851E0008851E0008851E000894
:1000C000851E0008851E0008851E0008851E000884
:1000D000851E0008851E000889010008851E00088D
:1000E000851E0008851E0008851E0008851E000864
:1000F000851E0008851E0008851E0008851E000854
:10010000000000000000000000000000851E000844
:10011000851E0008851E0008851E0008851E000833
:10012000851E0008851E0008851E0008851E000823
:10013000851E0008112900080000000000000000D2
:10014000851E0008851E0008851E000800000000AE
:10015000000000000000000000000000000000009F
:100160000000000000000000851E0008851E000839
:10017000851E0008000000000000000000000000D4
:1001800000000000851E000898B500AF174B174A05
:10019000928A92B291B2164A1278120292B24A40F0
:1001A00092B292B29A821348134902F0A3FE034618
:1001B000002B1AD0114B1B785A1CD1B20F4A117068
:1001C0001C460C4802F044FE0346DAB20C4B1A55AA
:1001D0000A4B1B78092B02D9084B00221A70094BD5
:1001E0001B780133DAB2074B1A7098BD0010004833
:1001F0009B2F000800440040050105003A00002044
:10020000300000203C00002080B58EB000AF2623D7
:100210003B7300237B730023BB730123FB7307F144
:100220000C03184601F06EFC4FF40030012100F081
:10023000C3FA07F11003184602F0D8FD07F11003C6
:100240002548194602F0AEFD4FF4E1333B6200232E
:100250007B620023BB620023FB620C233B63002311
:100260007B6307F120031C48194602F0E1FC1A48A1
:100270001A49012202F0FCFD4FF40030012100F088
:100280005FFA02233B7201237B720023BB720023BF
:10029000FB7204237B603B1D4FF09040194600F039
:1002A000BDFE4FF090400221072200F04BFF0823D3
:1002B0007B603B1D4FF09040194600F0AFFE4FF0C1
:1002C00090400321072200F03DFF0348012102F086
:1002D000A3FD3837BD4680BD004400400501050040
:1002E00080B48BB000AF786000233B620023FB61D9
:1002F0000023BB6100237B6100233B6100237B6201
:100300000023FB600023BB60924B5B6803F00C038F
:100310003B623B6A042B07D0082B09D0002B30D15D
:100320007B688D4A1A6030E07B688B4A1A602CE04B
:10033000884B5B6803F47013FB61864B5B6803F4C6
:100340008033BB61FB699B0C0233FB61BB69002BF3
:1003500005D1FB69814A02FB03F37B620DE07D4B13
:10036000DB6A03F00F0301337B617B4A7B69B2FBDD
:10037000F3F3FA6902FB03F37B627B687A6A1A6023
:1003800003E07B68744A1A6000BF724B5B6803F03D
:10039000F0033B623B6A1B093B62714A3B6A1344B0
:1003A0001B78DBB2BB607B681A68BB68DA407B688D
:1003B0005A60684B5B6803F4E0633B623B6A1B0A6C
:1003C0003B62674A3B6A13441B78DBB23B617B6844
:1003D0005A683B69DA407B689A605E4B5B6803F45D
:1003E00060533B623B6ADB0A3B625D4A3B6A1344F3
:1003F0001B78DBB2FB607B685A68FB68DA407B687D
:10040000DA60544BDB6A03F4F8733B623B6A1B0906
:100410003B62544B3A6A33F812309BB23B613B6902
:1004200003F01003002B06D07A6A3B69B2FBF3F2AB
:100430007B681A6103E07B681A687B681A61454B28
:10044000DB6A03F478533B623B6A5B0A3B62454BD1
:100450003A6A33F812309BB23B613B6903F01003F8
:10046000002B06D07A6A3B69B2FBF3F27B685A61D3
:1004700003E07B681A687B685A61364B1B6B03F09C
:100480001003002B03D17B68334A9A6103E07B6839
:100490001A687B689A612F4B1B6B03F02003002BBB
:1004A00003D17B682C4ADA6103E07B681A687B68B9
:1004B000DA61284B1B6B03F48073002B0DD07B6833
:1004C0001A687B6A9A4208D1FA68BB689A4204D1DA
:1004D0007B6A5A007B681A6203E07B68DA687B6893
:1004E0001A621C4B1B6B03F40073002B0DD07B684E
:1004F0001A687B6A9A4208D1FA68BB689A4204D1AA
:100500007B6A5A007B685A6203E07B68DA687B6822
:100510005A62104B1B6B03F00303002B04D17B6862
:10052000DA687B689A6228E00A4B1B6B03F00303CE
:10053000012B04D17B681A687B689A621DE0054B29
:100540001B6B03F00303022B0ED17B684FF40042B8
:100550009A6212E00010024000127A0000093D0089
:100560000000002010000020604B1B6B03F0030311
:10057000032B02D17B685E4A9A625C4B1B6B03F4CF
:100580004033002B04D17B689A687B68DA6221E0F3
:10059000564B1B6B03F44033B3F5803F04D17B68AB
:1005A0001A687B68DA6215E0504B1B6B03F440332A
:1005B000B3F5003F04D17B684FF40042DA6209E0F2
:1005C0004A4B1B6B03F44033B3F5403F02D17B68C9
:1005D000474ADA62454B1B6B03F44023002B04D1DE
:1005E0007B689A687B681A6321E0404B1B6B03F4BD
:1005F0004023B3F5802F04D17B681A687B681A63A7
:1006000015E03A4B1B6B03F44023B3F5002F04D1E4
:100610007B684FF400421A6309E0344B1B6B03F410
:100620004023B3F5402F02D17B68314A1A632F4B28
:100630001B6B03F44013002B04D17B689A687B6822
:100640005A6321E0294B1B6B03F44013B3F5801F61
:1006500004D17B681A687B685A6315E0234B1B6BD7
:1006600003F44013B3F5001F04D17B684FF400423C
:100670005A6309E01D4B1B6B03F44013B3F5401F95
:1006800002D17B681A4A5A63184B1B6B03F4400370
:10069000002B04D17B689A687B689A6321E0134B36
:1006A0001B6B03F44003B3F5800F04D17B681A6819
:1006B0007B689A6315E00D4B1B6B03F44003B3F5A5
:1006C000000F04D17B684FF400429A6309E0074BA6
:1006D0001B6B03F44003B3F5400F02D17B68044A5F
:1006E0009A632C37BD465DF8047B704700100240CA
:1006F00000127A0080B485B000AF78600023FB6000
:100700007B681B0FFB60FB68002B06D00B4B0B4A72
:10071000D26A22F47852DA6205E0084B074AD26ABC
:1007200022F4F872DA62054B044AD16A7A680A4305
:10073000DA621437BD465DF8047B70470010024052
:1007400080B483B000AF78600B46FB70FB78002B61
:1007500006D0094B084A51697A680A435A6106E093
:10076000054B054A51697A68D2430A405A610C37F1
:10077000BD465DF8047B70470010024080B483B032
:1007800000AF78600B46FB70FB78002B06D0094B5E
:10079000084A91697A680A439A6106E0054B054A5E
:1007A00091697A68D2430A409A610C37BD465DF878
:1007B000047B70470010024080B483B000AF7860C3
:1007C0000B46FB70FB78002B06D0094B084AD16919
:1007D0007A680A43DA6106E0054B054AD1697A680E
:1007E000D2430A40DA610C37BD465DF8047B70479E
:1007F0000010024080B483B000AF78600B46FB70FD
:10080000FB78002B06D0094B084A11697A680A4325
:100810001A6106E0054B054A11697A68D2430A401D
:100820001A610C37BD465DF8047B7047001002402A
:1008300080B584B000AF78600023FB730023BB73E6
:1008400000F0E2F87B681A787B685B781343DAB2D1
:100850007B689B781343DAB2FB7B1343DBB2FB73F9
:100860007B681A797B685B791343DAB27B689B7982
:100870001343DAB27B68DB781343DAB2BB7B1343F2
:10088000DBB2BB7307F10F03322020211A4600F0C0
:100890000BF807F10E03322023211A4600F004F86A
:1008A0001037BD4680BD00BF80B584B002AF0B4697
:1008B0003A600246FA71BB71514B4FF420421A6004
:1008C0000BE04F4B1B68591E4D4A1160002B04D1A1
:1008D00000F042F903469BB28EE04A484FF40041D3
:1008E00001F01AF80346002BEBD1FB799BB24FF4D1
:1008F000005200924348194601224FF0807300F0E5
:10090000D1FF3F4B4FF420421A600BE03C4B1B6879
:10091000591E3B4A1160002B04D100F01DF903461B
:100920009BB269E03748022100F0F6FF0346002B36
:10093000ECD0BB793348194600F0E0FF304B4FF460
:1009400020421A600BE02E4B1B68591E2C4A116086
:10095000002B04D100F000F903469BB24CE029487B
:10096000802100F0D9FF0346002BECD0FB799BB22D
:10097000002200922348194601224FF0007300F034
:1009800091FF1F4B4FF420421A600BE01C4B1B6879
:10099000591E1B4A1160002B04D100F0DDF80346FC
:1009A0009BB229E01748022100F0B6FF0346002B56
:1009B000ECD03B681B781348194600F09FFF104BA2
:1009C0004FF420421A600BE00D4B1B68591E0C4A75
:1009D0001160002B04D100F0BFF803469BB20BE07E
:1009E0000848202100F098FF0346002BECD0054872
:1009F000202100F0B1FF002318460837BD4680BD16
:100A00002C0000200054004080B58CB000AF4FF4A3
:100A100000100121FFF7D0FE4FF480200121FFF7E5
:100A20008FFE4FF400100121FFF78AFE4FF40010F3
:100A30000121FFF785FE4FF400100121FFF780FE32
:100A400041480621042200F07DFB3F480721042293
:100A500000F078FB022387F82C30002387F82E3033
:100A6000022387F82F30022387F82D304023BB6202
:100A700007F128033448194600F0D0FA8023BB62FE
:100A800007F128033048194600F0C8FA002387F818
:100A90002C30002387F82E30002387F82F300223D4
:100AA00087F82D300423BB6207F128032748194635
:100AB00000F0B4FA0420022101F0E6F902233B62BF
:100AC000002387F82430082387F82530012387F88E
:100AD000263007F12003184600F06AFD00233B6131
:100AE0000023BB600023FB6000237B610023BB610C
:100AF0000023FB61164B7B603B1D1648194600F036
:100B000051FE1448012100F0B1FE1023BB62002306
:100B100087F82C30002387F82E30022387F82D30F9
:100B2000002387F82F3007F128030848194600F002
:100B300075FA2023BB6207F128030448194600F028
:100B40006DFA3037BD4680BD0004004800100048F3
:100B5000252090000054004080B400AFFEE700BFA5
:100B600080B485B000AF786039600023FB607B689B
:100B7000DB68FB60FA68194B1340FB603B681A683E
:100B80003B685B681A433B689B681A433B68DB68B9
:100B90001A433B681B691A433B685B691A433B680D
:100BA0009B691343FA681343FB607B68FA68DA6059
:100BB0007B681B6BFB60FB6823F00F03FB603B68EB
:100BC0001B7F013BFA681343FB607B68FA681A637A
:100BD0001437BD465DF8047B704700BF07C0FFFDBA
:100BE00080B485B000AF786039600023FB607B681B
:100BF000B3F1A04F03D07A681C4B9A4207D11C4B2B
:100C00009B68FB60FA681B4B1340FB6006E01A4BC5
:100C10009B68FB60FA68174B1340FB603B681A68DF
:100C20003B685B681A433B689B681A433B68DB6818
:100C30001B031A433B681B7C1B021343FA681343D4
:100C4000FB607B68B3F1A04F03D07A68074B9A42F0
:100C500003D1074BFA689A6002E0074BFA689A6082
:100C60001437BD465DF8047B704700BF000100509B
:100C700000030050E010FCFF0007005080B483B078
:100C800000AF78600B46FB70FB78002B06D07B68CA
:100C90009B6843F001027B689A6005E07B689B6873
:100CA00043F002027B689A600C37BD465DF8047B16
:100CB000704700BF80B483B000AF78607B689B68EA
:100CC00043F000427B689A600C37BD465DF8047BB8
:100CD000704700BF80B483B000AF786039607B6834
:100CE0009B6823F080427B689A607B689A683B68C7
:100CF0001A437B689A600C37BD465DF8047B7047E9
:100D000080B485B000AF78600023FB737B689B687C
:100D1000002B02DA0123FB7301E00023FB73FB7B52
:100D200018461437BD465DF8047B704780B483B025
:100D300000AF78600B46FB707B689B6823F04052E5
:100D40007B689A60FB78002B06D07B689B6843F039
:100D500080527B689A6005E07B689B6843F0005294
:100D60007B689A600C37BD465DF8047B704700BF16
:100D700080B485B000AF7860F970BA707B700023E2
:100D8000FB600023BB60BB78042B21D87B681B6B06
:100D9000FB60BA7813465B0013445B001F2202FA23
:100DA00003F3BB60BB68DB43FA681340FB60F97870
:100DB000BA7813465B0013445B0001FA03F3BB608F
:100DC000FA68BB681343FB607B68FA681A6374E0D7
:100DD000BB78092B23D87B685B6BFB60BB785A1F01
:100DE00013465B0013445B001F2202FA03F3BB604F
:100DF000BB68DB43FA681340FB60F978BB785A1F85
:100E000013465B0013445B0001FA03F3BB60FA680E
:100E1000BB681343FB607B68FA685A634DE0BB789C
:100E20000E2B25D87B689B6BFB60BB78A3F10A0275
:100E300013465B0013445B001F2202FA03F3BB60FE
:100E4000BB68DB43FA681340FB60F978BB78A3F119
:100E50000A0213465B0013445B0001FA03F3BB6014
:100E6000FA68BB681343FB607B68FA689A6324E006
:100E70007B68DB6BFB60BB78A3F10F0213465B0062
:100E800013445B001F2202FA03F3BB60BB68DB4321
:100E9000FA681340FB60F978BB78A3F10F021346A0
:100EA0005B0013445B0001FA03F3BB60FA68BB68A4
:100EB0001343FB607B68FA68DA63FB78092B23D95C
:100EC0007B689B69FB60FB78A3F10A0213465B0019
:100ED0001344072202FA03F3BB607B689A69BB687C
:100EE000DB431A407B689A617B6899697878FB7864
:100EF000A3F10A0213465B00134400FA03F341EA2C
:100F000003027B689A611FE07B685B69FB60FB788A
:100F10005A1E13465B001344382202FA03F3BB60E7
:100F20007B685A69BB68DB431A407B685A617B68FF
:100F300059697878FA7813465B00134400FA03F392
:100F400041EA03027B685A611437BD465DF8047BB1
:100F5000704700BF80B483B000AF78607B689B6847
:100F600043F004027B689A600C37BD465DF8047B51
:100F7000704700BF80B483B000AF78607B681B6CA3
:100F80009BB218460C37BD465DF8047B704700BF26
:100F900080B485B000AFF860B9601346FB71FB798F
:100FA000002B06D0FB685A68BB681A43FB685A607E
:100FB00006E0FB685A68BB68DB431A40FB685A606E
:100FC0001437BD465DF8047B704700BF80B485B020
:100FD00000AF786039600023FB737B681A683B6858
:100FE0001340002B02D00123FB7301E00023FB73AD
:100FF000FB7B18461437BD465DF8047B704700BF85
:1010000080B483B000AF786039607B683A681A605A
:101010000C37BD465DF8047B704700BF80B487B0D5
:1010200000AF7860396000237B6100233B610023BF
:10103000FB6000237B617CE07B69012202FA03F301
:101040003B613B681A683B691340FB60FA683B6987
:101050009A426BD13B681B79012B03D03B681B790B
:10106000022B34D17B689A687B695B00032101FA0B
:1010700003F3DB431A407B689A607B689A683B689D
:101080005B7919467B695B0001FA03F31A437B68BD
:101090009A607B689B889AB27B699BB2012101FAB6
:1010A00003F39BB2DB439BB213409AB27B689A80F6
:1010B0007B689B889AB23B689B7919467B699BB297
:1010C00001FA03F39BB213439AB27B689A807B6860
:1010D0001A687B695B00032101FA03F3DB431A40C2
:1010E0007B681A607B681A683B681B7919467B69C4
:1010F0005B0001FA03F31A437B681A607B68DA68C5
:101100007B699BB25B00032101FA03F3DB431A40C6
:101110007B68DA607B68DA683B68DB7919467B6953
:101120005B0001FA03F31A437B68DA607B690133E1
:101130007B617B690F2B7FF67FAF1C37BD465DF867
:10114000047B704780B485B000AF786013460A46D0
:101150007A807B700023FB600023BB607A787B88F9
:1011600003F007039B0002FA03F3FB607B88DB08B4
:101170009BB21A467B88DB089BB219467B68083114
:1011800053F821107B8803F007039B000F2000FA1F
:1011900003F3DB4319407B68083243F822107B8855
:1011A000DB089BB21A467B68083253F82220FB68A2
:1011B0001343BB607B88DB089BB21A467B6808320E
:1011C000B96843F822101437BD465DF8047B7047B8
:1011D00080B582B000AF4FF400200121FFF7B0FAD4
:1011E0004FF400100121FFF7ABFA4FF4800001210A
:1011F000FFF7A6FA01233B710023BB710023FB71AB
:1012000001237B714FF47F433B603B460648194600
:10121000FFF704FF04233B603B4604481946FFF7F1
:10122000FDFE0837BD4680BD001000480014004890
:1012300080B500AF00F012F8074B00229A82064BEF
:10124000054A928A92B291B20122120292B24A40A7
:1012500092B292B29A82F2E70010004880B500AFD5
:10126000FFF7B6FFFEF7D0FF00F00CF800F074FEB9
:1012700000F080FB01F082FB01F060FA01F0A6FAB9
:1012800080BD00BF80B58CB000AF4FF00070012171
:10129000FFF792FA4FF480100121FFF751FA4E4800
:1012A00000210722FFF74EFF4B4801210722FFF7DD
:1012B00049FF03233B62022387F82430032387F886
:1012C0002530002387F82630012387F8273007F1DF
:1012D000200341481946FFF7A1FE404800F090FE68
:1012E0000023BB760023FB7600233B7700237B772C
:1012F0000023BB770023FB770023BB750323FB751B
:101300000A233B7605237B760423BB82344B4FF4C0
:1013100080729A8207F114033048194600F082FE69
:10132000034687F82B3097F82B30012B04D12C4B38
:101330004FF47F429A8203E0294B4FF488429A820D
:10134000284BFB6200BFFB6A5A1EFA62002BFAD1DF
:101350000023BB730123FB7300233B744FF6E07340
:10136000FB804FF6E0737B8146F22003BB804FF693
:10137000E0733B810023BB8101237B743B1D184636
:1013800000F022FF15480221012201F0B9F91423CF
:101390003B7000237B700023BB700123FB703B4636
:1013A000184600F0AFFB104B00221A720E4B40F2B1
:1013B00001321A600C4B00225A600B4B00225A7209
:1013C000094B00221A72084B01229A72064B002226
:1013D000DA723037BD4680BD000C00480064004022
:1013E00000100048FFFF0F004000002080B582B0D1
:1013F00000AF1B4800211B4A01F0CAF8194B9B7A29
:10140000FB71FB79002B00D127E00EE0154BDB7C54
:101410001846FB79013BFA79013A12490A44D27A1B
:101420001149C00003440B441A70FB795A1EFA712B
:10143000002BEBD10D4B1B780133DAB20B4B1A703A
:101440000B4B0B4A928A92B291B20A4A127812025C
:1014500092B24A4092B292B29A820837BD4680BD9B
:10146000006400406C000020800000205400002038
:1014700000100048992F000880B400AF034B1B7880
:101480001846BD465DF8047B704700BF540000203D
:1014900080B483B000AF02460B46FA71BB71F97994
:1014A000BB79054AC9000B4413441B7818460C3716
:1014B000BD465DF8047B70478000002080B500AF1A
:1014C000364B364A928A92B291B2354A127812025B
:1014D00092B24A4092B292B29A82324B4FF4407228
:1014E0001A60304B08229A722E4B00221A722D4B32
:1014F00000225A72002001F07DFB0346DAB2294B2C
:10150000DA72002001F076FB03461B0A9BB2DAB2C6
:10151000244B1A73012001F047FB0346DAB2214B3A
:101520005A73012001F040FB03461B0A9BB2DAB25A
:101530001C4B9A73022001F037FB0346DAB2194BB9
:10154000DA73022001F030FB03461B0A9BB2DAB2C9
:10155000144B1A74032001F027FB0346DAB2114B37
:101560005A74032001F020FB03461B0A9BB2DAB237
:101570000C4B9A740C480B4900F0D8FE03461A46EF
:101580000A4B1A7000BF094B1B780748194600F038
:1015900095FF0346012BF6D180BD00BF0010004827
:1015A0009A2F0008400000200064004055000020F1
:1015B00080B485B000AF78600023FB60754BFB60A2
:1015C0007B689B79002B00F0C8807B681B685B09F7
:1015D00003F1007303F502635B011A467B681B6825
:1015E0005B0903F1007303F502635B0119687B6813
:1015F0001B6803F01F03012000FA03F3DB430B40D9
:1016000013607B681B685B095A01634B13441A46DD
:101610007B681B685B0959015F4B0B4419687B6849
:101620001B6803F01F03012000FA03F3DB430B40A8
:1016300013607B681B791A467B681B685B095B013A
:101640001344FA681344FB60FB68FA6811687A680F
:10165000126802F01F02012000FA02F20A431A6027
:101660004C4BFB607B681B685B095A014B4B134476
:101670001A467B681B685B095901484B0B44196883
:101680007B681B6803F01F03012000FA03F3DB43B0
:101690000B4013607B681B685B095A01404B134485
:1016A0001A467B681B685B0959013D4B0B4419685E
:1016B0007B681B6803F01F03012000FA03F3DB4380
:1016C0000B4013607B685B79102B2ED17B681B6805
:1016D0005B095A01314B13441A467B681B685B094E
:1016E00059012E4B0B4419687B681B6803F01F03DC
:1016F000012000FA03F30B4313607B681B685B094E
:101700005A01274B13441A467B681B685B09590131
:10171000234B0B4419687B681B6803F01F030120EF
:1017200000FA03F30B4313602FE07B685B791A46E2
:101730007B681B685B095B011344FA681344FB6018
:10174000FB68FA6811687A68126802F01F020120CB
:1017500000FA02F20A431A6017E07B681B791A4606
:101760007B681B685B095B011344FA681344FB60E8
:10177000FB68FA6811687A68126802F01F0201209B
:1017800000FA02F2D2430A401A601437BD465DF8EF
:10179000047B704700040140040401400804014038
:1017A0000C04014080B485B000AF7860396000233C
:1017B000FB607B681B6823F001027B681A607B6812
:1017C0001B68FB60FA68284B1340FB603B685A6853
:1017D0003B689B681B021343FA681343FB607B68FA
:1017E000FA681A603B681B6823F070627B681A61B4
:1017F0007B681B6843F001027B681A600023FB6072
:101800007B68FA689A607B68FA68DA603B689A6974
:101810003B681B691343FB607B68FA689A607B68CE
:101820009B6843F400427B689A603B68DB68FB601E
:101830007B681A68FB681A437B681A607B685B6880
:10184000FB60FB6823F0784323F40043FB603B68B4
:101850005B69FA681343FB607B68FA685A60143767
:10186000BD465DF8047B7047FFE0CF0080B483B0D5
:1018700000AF78600B46FB70FB78002B06D07B68CE
:101880001B6843F001027B681A6005E07B681B68F7
:1018900023F001027B681A600C37BD465DF8047BBB
:1018A000704700BF80B487B000AFF8607B600B4624
:1018B0007B8113467B7200237B61FB685B687B61E5
:1018C0007A690D4B13407B617B89C3F309027B7AF4
:1018D0001B0403F47F031A437B681A433B6A1343D8
:1018E0007A6913437B61FB687A695A601C37BD468D
:1018F0005DF8047B704700BF009800FC80B483B0A3
:1019000000AF78600B46FB70FA787B689A620C3700
:10191000BD465DF8047B704780B485B000AF786049
:1019200039600023BB600023FB737B689B69BB604D
:10193000BA683B681340BB60BB68002B02D0012330
:10194000FB7301E00023FB73FB7B18461437BD4695
:101950005DF8047B704700BF80B483B000AF78604F
:1019600039607B683A68DA610C37BD465DF8047B04
:10197000704700BF80B582B000AF00233B7050239A
:101980007B700723BB700023BB710823FB7000230F
:10199000FB7000237B713B461846FEF749FF083772
:1019A000BD4680BD80B500AF1A4B1A4A126842F09E
:1019B00001021A60174A174B5968174B0B405360C6
:1019C000144A144B1B6823F0847323F48033136090
:1019D000104B104A126822F480221A600D4B0D4AF7
:1019E000526822F4FE025A600A4B0A4AD26A22F076
:1019F0000F02DA62074A074B196B084B0B4013635F
:101A0000044B00229A6000F00DF8054B4FF0006285
:101A10009A6080BD001002400CC07FF8CCFC00FF33
:101A200000ED00E080B483B000AF00237B600023B2
:101A30003B60324B314A126842F480321A602F4BBD
:101A40001B6803F400333B607B6801337B603B68B9
:101A5000002B03D17B68B3F5A06FF0D1274B1B6837
:101A600003F40033002B02D001233B6001E000238C
:101A70003B603B68012B3CD1214B12221A601F4B6B
:101A80001E4A52685A601D4B1C4A52685A601B4BD2
:101A90001A4A526842F480625A60184B174A5268D8
:101AA00022F47C125A60154B144A526842F4E81230
:101AB0005A60124B114A126842F080721A6000BFDD
:101AC0000E4B1B6803F00073002BF9D00B4B0B4A35
:101AD000526822F003025A60084B084A526842F0EA
:101AE00002025A6000BF054B5B6803F00C03082B31
:101AF000F9D10C37BD465DF8047B704700100240F9
:101B00000020024080B487B000AF786000237B6182
:101B100000233B610F23FB607B68DB78002B38D010
:101B2000264BDB68DB4303F4E0631B0A7B617B69C4
:101B3000C3F104033B617B69FA6822FA03F3FB609B
:101B40007B685B781A463B6902FA03F37B617B682A
:101B50009B781A46FB6813407A6913437B617B6963
:101B60001B017B6116497B681B787A69D2B20B44F2
:101B700083F80023124B7A6812785209D2B279683E
:101B8000097801F01F01012000FA01F143F8221049
:101B90000EE00B4B7A6812785209D2B27968097854
:101BA00001F01F01012000FA01F1203243F8221058
:101BB0001C37BD465DF8047B704700BF00ED00E0B8
:101BC00000E100E080B485B000AF786039600023A8
:101BD000FB817B681B88FB817A682C4B9A420FD073
:101BE0007A682B4B9A420BD07B68B3F1804F07D0B9
:101BF0007A68284B9A4203D07A68274B9A4208D1D8
:101C0000FB8923F07003FB813B685A88FB891343EF
:101C1000FB817A68214B9A420CD07A68204B9A4219
:101C200008D0FB8923F44073FB813B681A89FB8948
:101C30001343FB817B68FA891A803B685A687B688A
:101C4000DA623B681A887B681A857A680F4B9A4279
:101C50000FD07A680E4B9A420BD07A68114B9A4299
:101C600007D07A68104B9A4203D07A680F4B9A4299
:101C700004D13B689B7A1A467B681A867B680122EE
:101C80005A611437BD465DF8047B7047002C014053
:101C900000340140000400400008004000100040F3
:101CA0000014004000400140004401400048014051
:101CB00080B483B000AF78600B46FB70FB78002BDC
:101CC00008D07B681B889BB243F001039AB27B6803
:101CD0001A8007E07B681B889BB223F001039AB24D
:101CE0007B681A800C37BD465DF8047B704700BFE7
:101CF00080B487B000AF786039600023FB600023B8
:101D00007B6100233B617B681B6A23F001027B68D7
:101D10001A627B681B6A7B617B685B683B617B68DE
:101D20009B69FB60FB6823F4803323F07003FB6046
:101D3000FB6823F00303FB603B681B68FA681343EE
:101D4000FB607B6923F002037B613B689B897A69B6
:101D500013437B613B689B887A6913437B617A6894
:101D6000244B9A420FD07A68234B9A420BD07A6860
:101D7000224B9A4207D07A68214B9A4203D07A6864
:101D8000204B9A4223D17B6923F008037B613B6897
:101D9000DB897A6913437B617B6923F004037B61F0
:101DA0003B68DB887A6913437B613B6923F480736A
:101DB0003B613B6923F400733B613B681B8A3A69D2
:101DC00013433B613B685B8A3A6913433B617B6821
:101DD0003A695A607B68FA689A613B689A687B68DE
:101DE0005A637B687A691A621C37BD465DF8047BCA
:101DF000704700BF002C014000340140004001400A
:101E0000004401400048014080B483B000AF7860D6
:101E10000B467B807B685A684FF68F7313407A6855
:101E200053607B685A687B881A437B685A600C371A
:101E3000BD465DF8047B7047002100F004B80C4BF0
:101E40005B58435004310B480B4B42189A42FFF445
:101E5000F6AF0A4A00F003B8002342F8043B084BEF
:101E60009A42FFF4F9AFFFF79DFDFFF7E1F97047E4
:101E70009F2F0008000000203000002030000020CC
:101E800004010020FFF7FEBF90B484B000AF02460B
:101E90000B46FA71BB710023FB60BB7903F00303AF
:101EA0009B000F2202FA03F3FB60154BBA799208EC
:101EB000D2B21349B8798008C0B2023051F820007C
:101EC000F968C9430140023243F822100C4BBA7939
:101ED0009208D2B20A49B8798008C0B2023051F8EB
:101EE0002000FC79B97901F00301890004FA01F1BD
:101EF0000143023243F822101037BD4690BC7047B0
:101F00000000014080B483B000AF03463960FB712C
:101F100097F90730002B0BDA0D49FB7903F00F031B
:101F2000043B3A68D2B21201D2B20B441A7609E0ED
:101F3000084997F907303A68D2B21201D2B20B447D
:101F400083F800230C37BD465DF8047B704700BF63
:101F500000ED00E000E100E080B500AF4FF0FF30A1
:101F60000121FFF7CFFF064B00221A60044B054A00
:101F70005A60034B00229A60014B07221A6080BD11
:101F800010E000E040190100B0B500AF194B1B781C
:101F90000133DAB2174B1A70FFF76EFA0346002BC3
:101FA00011D0154C144B9B8A9DB202200021FFF7E3
:101FB0006FFA0346012202FA03F39BB21B029BB2A3
:101FC0006B409BB2A3820B4B1B78642B11D90A4B3D
:101FD000094A928A92B291B2084A1278120292B2D7
:101FE0004A4092B292B29A82FFF768FA014B0022FD
:101FF0001A70B0BD5800002000100048982F00084B
:1020000080B582B000AF78604FF000700121FEF71C
:10201000F1FB4FF000700021FEF7ECFB0837BD46E6
:1020200080BD00BF80B485B000AF78603960002308
:10203000FB730023BB607B681B6823F002027B6894
:102040001A607B681B6843F001027B681A6002E03B
:10205000BB680133BB607B685B6803F00103002B46
:1020600004D1BA686FF07F439A42F1D17B685B6814
:1020700003F00103002B02D10023FB739CE03B68BB
:102080009B79012B06D17B681B6843F080027B683B
:102090001A6005E07B681B6823F080027B681A6089
:1020A0003B68DB79012B06D17B681B6843F040025B
:1020B0007B681A6005E07B681B6823F040027B6840
:1020C0001A603B681B7A012B06D17B681B6843F0C2
:1020D00020027B681A6005E07B681B6823F0200201
:1020E0007B681A603B685B7A012B06D17B681B68B2
:1020F00043F010027B681A6005E07B681B6823F0E0
:1021000010027B681A603B689B7A012B06D17B68C2
:102110001B6843F008027B681A6005E07B681B6857
:1021200023F008027B681A603B68DB7A012B06D13A
:102130007B681B6843F004027B681A6005E07B68DB
:102140001B6823F004027B681A603B689B789A073F
:102150003B68DB781B061A433B681B791B041A4358
:102160003B685B791B051A433B681B88013B1A439C
:102170007B68DA617B681B6823F001027B681A6068
:102180000023BB6002E0BB680133BB607B685B6817
:1021900003F00103002B04D0BA686FF07F439A422A
:1021A000F1D17B685B6803F00103002B02D00023B0
:1021B000FB7301E00123FB73FB7B18461437BD461C
:1021C0005DF8047B704700BF80B485B000AF7860D5
:1021D0000023FB607B689B7A012202FA03F3FB6019
:1021E000514B514AD2F8002242F00102C3F80022BA
:1021F0004D4B4D4AD2F81C12FA68D2430A40C3F83C
:102200001C227B681B7B002B21D1474B464AD2F80E
:102210000C12FA68D2430A40C3F80C22424B7A6887
:10222000927A7968C98808047968498801434832F4
:1022300043F832103C497B689B7A7A689288100494
:102240007A68128802434833DB000B445A607B688B
:102250001B7B012B20D1344B334AD2F80C12FA6885
:102260000A43C3F80C22304B7A68927A796809885D
:102270000804796849880143483243F832102A49F2
:102280007B689B7A7A68928810047A68D2880243C5
:102290004833DB000B445A607B68DB7A002B09D1A2
:1022A000214B214AD2F80412FA68D2430A40C3F8FB
:1022B000042207E01C4B1C4AD2F80412FA680A43B5
:1022C000C3F804227B681B89002B08D1164B164AE1
:1022D000D2F81412FA68D2430A40C3F814227B6879
:1022E0001B89012B07D1104B0F4AD2F81412FA6840
:1022F0000A43C3F814227B685B7B012B07D10A4B8E
:10230000094AD2F81C12FA680A43C3F81C22064B89
:10231000054AD2F8002222F00102C3F80022143745
:10232000BD465DF8047B70470064004080B485B012
:1023300000AF786039600023FB737B689B6803F013
:102340008063002B02D00023FB7313E07B689B6843
:1023500003F00063002B02D00123FB730AE07B68CB
:102360009B6803F08053002B02D00223FB7301E033
:102370000423FB73FB7B042B00F09880FB7BFA7B30
:102380007968183212010A44126802F00102796871
:1023900018331B010B441A603B681B7A002B13D1C6
:1023A000FB7BFA7B7968183212010A4411683A689B
:1023B000126850053A68527A02430A437968183322
:1023C0001B010B441A6015E0FB7BFA7B796818321D
:1023D00012010A4411683A685268D0003A68127AC9
:1023E00010433A68527A02430A43796818331B0152
:1023F0000B441A603B689B7A03F00F03DAB23B6828
:102400009A72FB7BFA7B7968183212010A4452688F
:1024100022F00F02796818331B010B445A60FB7BD2
:10242000FA7B7968183212010A4451683A68927A44
:102430000A43796818331B010B445A60FB7B3A68E6
:10244000927B11063A68527B120411433A68127B60
:10245000120211433A68D27A0A4379681B010B448D
:1024600003F5C4731A60FB7B3A68927C11063A68E4
:10247000527C120411433A68127C120211433A68EA
:10248000D27B0A4379681B010B4403F5C4735A607D
:10249000FB7BFA7B7968183212010A44126842F019
:1024A0000102796818331B010B441A60FB7B184644
:1024B0001437BD465DF8047B704700BF80B485B01B
:1024C00000AF78600B46FB700023FB60FB78012BAC
:1024D00009D0022B0DD0002B11D17B689A68264BB6
:1024E0001340FB600EE07B689A68244B1340FB604E
:1024F00008E07B689A68224B1340FB6002E00023EF
:10250000FB6000BFFB681F4A93421BD01D4A9342E9
:1025100008D81D4A934212D0174A934218D0002B74
:102520000AD01EE0194A93420FD0154A934215D0A3
:10253000124A93420FD014E00223FB6014E0002300
:10254000FB6011E00023FB600EE00023FB600BE06A
:102550000123FB6008E00123FB6005E00123FB6031
:1025600002E00023FB6000BFFB68DBB218461437B3
:10257000BD465DF8047B70470300000400030008BB
:102580000000031000010008010000040000011019
:1025900080B485B000AFF8600B467A60FB72FB7ABE
:1025A000FA681B331B0113441B68DBB203F00403FE
:1025B000DAB27B681A727B681B7A002B09D1FB7A2E
:1025C000FA681B331B0113441B685A0D7B681A60A1
:1025D00008E0FB7AFA681B331B0113441B68DA0816
:1025E0007B685A60FB7AFA681B331B0113441B6833
:1025F000DBB203F00203DAB27B685A72FB7AFA6844
:102600001B331B0113445B68DBB203F00F03DAB228
:102610007B689A72FB7AFA681B331B0113445B6870
:102620001B0ADAB27B68DA74FB7AFA681B0113447E
:1026300003F5DC731B68DAB27B68DA72FB7AFA683E
:102640001B01134403F5DC731B681B0ADAB27B68B9
:102650001A73FB7AFA681B01134403F5DC731B68D9
:102660001B0CDAB27B685A73FB7AFA681B011344BD
:1026700003F5DC731B681B0EDAB27B689A73FB7A76
:10268000FA681B01134403F5DC735B68DAB27B68FC
:10269000DA73FB7AFA681B01134403F5DC735B6899
:1026A0001B0ADAB27B681A74FB7AFA681B011344BE
:1026B00003F5DC735B681B0CDAB27B685A74FB7A37
:1026C000FA681B01134403F5DC735B681B0EDAB276
:1026D0007B689A74FB7A002B06D1FB68DB6843F0B9
:1026E0002002FB68DA6005E0FB681B6943F020020A
:1026F000FB681A611437BD465DF8047B704700BF64
:1027000080B485B000AFF860B9601346FB71FB7907
:10271000002B06D0FB685A69BB681A43FB685A61F4
:1027200006E0FB685A69BB68DB431A40FB685A61E4
:102730001437BD465DF8047B704700BF80B58AB092
:1027400000AF04200121FEF737F84FF4801001217B
:10275000FDF7F6FF4FF480533B6002233B710123EA
:102760007B710023FB713B4616481946FEF756FC69
:1027700014480C210222FEF7E5FC44F250633B6250
:102780000023BB830023BB840023FB8307F11C03CE
:102790000D481946FFF716FA6023BB600123BB8181
:1027A00042F228333B610223BB8207F1080306484B
:1027B0001946FFF79DFA04480121FFF779FA2837F7
:1027C000BD4680BD000C00480008004080B584B0C4
:1027D00000AF01200121FDF7D1FF01200121FDF70C
:1027E000EBFF0D4BBB604823BB800023BB81002364
:1027F000FB803B1D4FF080401946FFF7E3F94FF097
:1028000080402021FFF700FB4FF080400121FFF7BF
:102810004FFA1037BD4680BD9F86010098B500AFC6
:102820004FF0A0400421FEF7D1FB0346002B45D01A
:10283000304B04229A82304B1B781C464FF0A0404C
:10284000FEF798FB034647F2305202FB03F3002BDE
:1028500001DA03F6FF731B139AB2284B23F81420F6
:10286000254B1B78012202FA03F3DAB2244B1B78C2
:102870001343DAB2224B1A70224B224A928A92B246
:1028800091B2214A1278120292B24A4092B292B2A6
:102890009A82194B1B780133DAB2174B1A70164B18
:1028A0001B78032B02D9144B00221A704FF0A04062
:1028B0000421FEF7A5FB0F4B00229A824FF0A040A7
:1028C0000821FEF783FB0346002B11D00D4B0D4A68
:1028D000928A92B291B20D4A1278120292B24A4092
:1028E00092B292B29A824FF0A0400821FEF788FB84
:1028F00098BD00BF00140048610000206400002063
:1029000060000020001000489D2F00089C2F000848
:1029100080B500AF1448FEF72DFB034647F2305256
:1029200002FB03F3002B01DA03F6FF731B139AB2C9
:102930000E4B1A800E4B1B7843F01003DAB20C4B8F
:102940001A700C4B0B4A928A92B291B20A4A1278D0
:10295000120292B24A4092B292B29A820248042182
:10296000FEF74EFB80BD00BF0005005000010020B7
:1029700060000020001000489E2F000880B592B033
:1029800000AF4FF48070FDF7B5FE8348FDF7B2FE4F
:102990004FF080500121FDF7D3FE4FF00050012190
:1029A000FDF7CEFE4FF480200121FDF7C9FE4FF464
:1029B00000200121FDF7C4FE4FF480533B64032344
:1029C00087F84430002387F8473007F14003734805
:1029D0001946FEF723FB0F233B6407F140037048C1
:1029E0001946FEF71BFB4FF0A0400121FEF79EF9B0
:1029F0006C480121FEF79AF94FF4B3737B8100BF55
:102A00007B899BB25A1E92B27A81002BF8D14FF08B
:102A1000A0400021FEF75EF94FF0A040FEF74AF912
:102A200000BF4FF0A040FEF76BF90346002BF8D132
:102A30005C480021FEF74EF95A48FEF73BF900BF0B
:102A40005848FEF75DF90346002BF9D10023FB60DF
:102A500000233B6100237B610023BB6164233B7740
:102A600007F10C034F481946FEF7BAF807F10C03BB
:102A70004FF0A0401946FEF7B3F800233B62002355
:102A80007B624FF48063FB6200233B6300237B6324
:102A90000023BB634FF43073BB62042387F83C30E0
:102AA00007F120034FF0A0401946FEF759F84FF404
:102AB000E073BB62012387F83C3007F120033948FB
:102AC0001946FEF74DF800237B710023BB710123EB
:102AD000FB7112233B713B1D1846FFF713F83D2392
:102AE0003B713B1D1846FFF70DF84FF0A040042145
:102AF0000122FEF74DFA4FF0A04008210122FEF717
:102B000047FA284804210122FEF742FA4FF0A0407C
:102B1000082101220723FEF72BF94FF0A0400621E0
:102B200003220723FEF724F94FF0A04007210222D9
:102B30000723FEF71DF94FF0A040092104220723C7
:102B4000FEF716F91748032101220423FEF710F9B6
:102B50004FF0A0400121FEF791F812480121FEF745
:102B60008DF800BF4FF0A0400121FEF72FFA034679
:102B7000002BF7D000BF0B480121FEF727FA0346D0
:102B8000002BF8D04FF0A040FEF7E4F90548FEF71F
:102B9000E1F94837BD4680BD002000100004004820
:102BA000000800480005005080B483B000AF034621
:102BB000FB71FB79032B01D9002310E0FB79012283
:102BC00002FA03F3DBB2DB43DAB2084B1B781340A3
:102BD000DAB2064B1A70FA79054B33F81230184600
:102BE0000C37BD465DF8047B704700BF60000020D5
:102BF0006400002080B483B000AF0346FB71FB7912
:102C0000002B01D0002308E0074B1B7823F01003B2
:102C1000DAB2054B1A70054B1B8818460C37BD46B7
:102C20005DF8047B704700BF6000002000010020B9
:102C300080B594B000AF786039600023FB64002356
:102C4000BB6400237B647B681B6823F001027B6804
:102C50001A607B685B687B647B6C23F440537B6405
:102C60003B689B687A6C13437B647B687A6C5A6020
:102C70007B681B687B647B6C23F4B05323F00C03EC
:102C80007B643B685A683B68DB681A433B681B6996
:102C900013437A6C13437B647B687A6C1A607B689D
:102CA0009B687B647B6C23F440737B643B685B694B
:102CB0007A6C13437B647B687A6C9A6007F1080333
:102CC0001846FDF70DFB7A68324B9A4202D13B6BF6
:102CD000BB6416E07A68304B9A4202D17B6BBB64CE
:102CE0000FE07A682D4B9A4202D1BB6BBB6408E0BF
:102CF0007A682B4B9A4202D1FB6BBB6401E03B6CC0
:102D0000BB647B681B6803F40043002B11D0BB6CD1
:102D10005A003B681B68B2FBF3F3FB64BB6C5B00BF
:102D20003A681268B3FBF2F102FB01F29B1A7B6472
:102D30000EE03B681B68BA6CB2FBF3F3FB643B68C4
:102D40001A68BB6CB3FBF2F102FB01F29B1A7B64C5
:102D50003B681B685A087B6C9A4202D8FB6C0133B3
:102D6000FB647B681B6803F40043002B0BD0FB6CF7
:102D700003F00F035B087B64FA6C4FF6F0731340AB
:102D80007A6C1343FB64FB6C9AB27B689A81503770
:102D9000BD4680BD0038014000440040004800406E
:102DA000004C004080B485B000AF786039600023EB
:102DB000FB607B685B68FB60FB6823F47063FB600F
:102DC0003B681A683B685B681A433B689B681A4318
:102DD0003B68DB681343FA681343FB607B68FA685F
:102DE0005A601437BD465DF8047B704780B483B0E9
:102DF00000AF78607B6800221A607B6800225A600E
:102E00007B6800229A607B680022DA600C37BD463E
:102E10005DF8047B704700BF80B483B000AF78607A
:102E20000B46FB70FB78002B06D07B681B6843F0D9
:102E300001027B681A6005E07B681B6823F00102D1
:102E40007B681A600C37BD465DF8047B704700BF95
:102E500080B483B000AF78607B689B8C9BB2C3F377
:102E600008039BB218460C37BD465DF8047B7047DB
:102E700080B489B000AFF860B9601346FB710023DD
:102E8000BB6100237B6100233B610023FB61FB6886
:102E9000FB61BB689BB21B0A9BB2BB61BB68DBB228
:102EA0007B617B69012202FA03F33B61BB69022B60
:102EB00003D1FB690433FB6105E0BB69032B02D13D
:102EC000FB690833FB61FB79002B06D0FB69FA69CB
:102ED00011683A690A431A6006E0FB69FA691168E9
:102EE0003A69D2430A401A602437BD465DF8047B34
:102EF000704700BF80B487B000AF786039600023AE
:102F0000FB6000237B610023BB600023FB743B68F4
:102F10009BB21B0A9BB2BB603B68DBB27B617B69E7
:102F2000012202FA03F37B61BB68012B05D17B68A8
:102F30001B687A6913407B610DE0BB68022B05D1E9
:102F40007B685B687A6913407B6104E07B689B68FF
:102F50007A6913407B613B681B0CFB60FB680122B4
:102F600002FA03F3FB607B68DB69FA681340FB60DD
:102F70007B69002B05D0FB68002B02D00123FB747A
:102F800001E00023FB74FB7C18461C37BD465DF84E
:0F2F9000047B70470001020102040810204080FA
:102F9F0000000000010203040102030406070809F0
:102FAF000000010002000400060008000A000C00E7
:102FBF0010002000400080000001000000A0000071
:0400000508000000EF
:00000001FF
