:020000040800F2
:1000000000A000203D200008812000088120000879
:1000100081200008812000088120000800000000E5
:100020000000000000000000000000008120000827
:100030008120000800000000812000088D210008B8
:10004000812000088120000881200008812000080C
:1000500081200008812000088120000881200008FC
:10006000812000088120000881200008E92700087D
:1000700081200008812000088120000881200008DC
:10008000812000088120000839280008812000080C
:10009000CD1600088120000881200008812000087A
:1000A00081200008812000088120000881200008AC
:1000B000812000088120000881200008812000089C
:1000C000812000088120000881200008812000088C
:1000D0008120000881200008890100088120000893
:1000E000812000088120000881200008812000086C
:1000F000812000088120000881200008812000085C
:100100000000000000000000000000008120000846
:10011000812000088120000881200008812000083B
:10012000812000088120000881200008812000082B
:10013000812000082D2900080000000000000000B8
:1001400081200008812000088120000800000000B4
:10015000000000000000000000000000000000009F
:10016000000000000000000081200008812000083D
:1001700081200008000000000000000000000000D6
:10018000000000008120000898B500AF174B174A07
:10019000928A92B291B2164A1278120292B24A40F0
:1001A00092B292B29A821348134902F0C1FE0346FA
:1001B000002B1AD0114B1B785A1CD1B20F4A117068
:1001C0001C460C4802F048FE0346DAB20C4B1A55A6
:1001D0000A4B1B78092B02D9084B00221A70094BD5
:1001E0001B780133DAB2074B1A7098BD0010004833
:1001F000D72F000800440040050105003A00002008
:10020000300000203C00002080B58EB000AF2623D7
:100210003B7300237B730023BB730123FB7307F144
:100220000C03184601F068FD4FF40030012100F086
:10023000F5FA07F11003184602F0CAFD07F11003A2
:100240002548194602F0A0FD4FF4E1333B6200233C
:100250007B620023BB620023FB620C233B63002311
:100260007B6307F120031C48194602F0D3FC1A48AF
:100270001A49012202F000FE4FF40030012100F083
:1002800091FA02233B7201237B720023BB7200238D
:10029000FB7204237B603B1D4FF09040194600F039
:1002A00011FF4FF090400221072200F09FFF08232A
:1002B0007B603B1D4FF09040194600F003FF4FF06C
:1002C00090400321072200F091FF0348012102F032
:1002D00095FD3837BD4680BD00440040050105004E
:1002E00080B582B000AF0346FB71134B124A928A6D
:1002F00092B291B2114A1278120292B24A4092B26C
:1003000092B29A8200BF0E484FF4803102F0F6FD9F
:100310000346002BF7D1FB799BB20948194602F03E
:1003200089FD00BF0648402102F0E8FD0346002B8E
:10033000F8D00837BD4680BD00100048D82F00080F
:100340000044004080B48BB000AF786000233B6273
:100350000023FB610023BB6100237B6100233B6121
:1003600000237B620023FB600023BB60924B5B6831
:1003700003F00C033B623B6A042B07D0082B09D027
:10038000002B30D17B688D4A1A6030E07B688B4A45
:100390001A602CE0884B5B6803F47013FB61864B9A
:1003A0005B6803F48033BB61FB699B0C0233FB6128
:1003B000BB69002B05D1FB69814A02FB03F37B6219
:1003C0000DE07D4BDB6A03F00F0301337B617B4A59
:1003D0007B69B2FBF3F3FA6902FB03F37B627B6890
:1003E0007A6A1A6003E07B68744A1A6000BF724B35
:1003F0005B6803F0F0033B623B6A1B093B62714A96
:100400003B6A13441B78DBB2BB607B681A68BB682D
:10041000DA407B685A60684B5B6803F4E0633B62D8
:100420003B6A1B0A3B62674A3B6A13441B78DBB298
:100430003B617B685A683B69DA407B689A605E4B37
:100440005B6803F460533B623B6ADB0A3B625D4AD4
:100450003B6A13441B78DBB2FB607B685A68FB681D
:10046000DA407B68DA60544BDB6A03F4F8733B6272
:100470003B6A1B093B62544A3B6A32F813309BB219
:100480003B613B6903F01003002B06D07A6A3B699D
:10049000B2FBF3F27B681A6103E07B681A687B6841
:1004A0001A61454BDB6A03F478533B623B6A5B0A93
:1004B0003B62454A3B6A32F813309BB23B613B6971
:1004C00003F01003002B06D07A6A3B69B2FBF3F20B
:1004D0007B685A6103E07B681A687B685A61364B17
:1004E0001B6B03F01003002B03D17B68334A9A6126
:1004F00003E07B681A687B689A612F4B1B6B03F0E3
:100500002003002B03D17B682C4ADA6103E07B686F
:100510001A687B68DA61284B1B6B03F48073002B2D
:100520000DD07B681A687B6A9A4208D1FA68BB686A
:100530009A4204D17B6A5A007B681A6203E07B68A6
:10054000DA687B681A621C4B1B6B03F40073002B88
:100550000DD07B681A687B6A9A4208D1FA68BB683A
:100560009A4204D17B6A5A007B685A6203E07B6836
:10057000DA687B685A62104B1B6B03F00303002B95
:1005800004D17B68DA687B689A6228E00A4B1B6BAF
:1005900003F00303012B04D17B681A687B689A621D
:1005A0001DE0054B1B6B03F00303022B0ED17B6890
:1005B0004FF400429A6212E00010024000127A00EA
:1005C00000093D000000002010000020604B1B6B64
:1005D00003F00303032B02D17B685E4A9A625C4BF3
:1005E0001B6B03F44033002B04D17B689A687B6853
:1005F000DA6221E0564B1B6B03F44033B3F5803FC6
:1006000004D17B681A687B68DA6215E0504B1B6B7B
:1006100003F44033B3F5003F04D17B684FF400424C
:10062000DA6209E04A4B1B6B03F44033B3F5403FF9
:1006300002D17B68474ADA62454B1B6B03F44023C7
:10064000002B04D17B689A687B681A6321E0404BD9
:100650001B6B03F44023B3F5802F04D17B681A6829
:100660007B681A6315E03A4B1B6B03F44023B3F528
:10067000002F04D17B684FF400421A6309E0344B29
:100680001B6B03F44023B3F5402F02D17B68314A42
:100690001A632F4B1B6B03F44013002B04D17B68B0
:1006A0009A687B685A6321E0294B1B6B03F4401363
:1006B000B3F5801F04D17B681A687B685A6315E024
:1006C000234B1B6B03F44013B3F5001F04D17B686D
:1006D0004FF400425A6309E01D4B1B6B03F44013B7
:1006E000B3F5401F02D17B681A4A5A63184B1B6B43
:1006F00003F44003002B04D17B689A687B689A63FB
:1007000021E0134B1B6B03F44003B3F5800F04D1BE
:100710007B681A687B689A6315E00D4B1B6B03F4CA
:100720004003B3F5000F04D17B684FF400429A6395
:1007300009E0074B1B6B03F44003B3F5400F02D1F4
:100740007B68044A9A632C37BD465DF8047B70478A
:100750000010024000127A0080B485B000AF7860CB
:100760000023FB607B681B0FFB60FB68002B06D03F
:100770000B4A0B4BDB6A23F47853D36205E0084A3B
:10078000074BDB6A23F4F873D3620549044BDA6A3A
:100790007B681343CB621437BD465DF8047B70471A
:1007A0000010024080B483B000AF78600B46FB704D
:1007B000FB78002B06D00949084B5A697B68134324
:1007C0004B6106E00549054B5A697B68DB431340E2
:1007D0004B610C37BD465DF8047B7047001002404A
:1007E00080B483B000AF78600B46FB70FB78002BC1
:1007F00006D00949084B9A697B6813438B6106E070
:100800000549054B9A697B68DB4313408B610C37C4
:10081000BD465DF8047B70470010024080B483B091
:1008200000AF78600B46FB70FB78002B06D00949BF
:10083000084BDA697B681343CB6106E00549054B39
:10084000DA697B68DB431340CB610C37BD465DF84A
:10085000047B70470010024080B483B000AF786022
:100860000B46FB70FB78002B06D00949084B1A6930
:100870007B6813430B6106E00549054B1A697B68E9
:10088000DB4313400B610C37BD465DF8047B7047BA
:100890000010024080B584B000AF78600023FB7385
:1008A0000023BB7300F0E2F87B681A787B685B7802
:1008B0001343DAB27B689B781343DAB2FB7B1343B2
:1008C000DBB2FB737B681A797B685B791343DAB21E
:1008D0007B689B791343DAB27B68DB781343DAB227
:1008E000BB7B1343DBB2BB7307F10F033220202124
:1008F0001A4600F00BF807F10E03322023211A46A6
:1009000000F004F81037BD4680BD00BF80B584B04C
:1009100002AF03463A60FB710B46BB71514B4FF47B
:1009200020421A600BE04F4B1B685A1E4D490A606B
:10093000002B04D100F042F903469BB28EE04A48F6
:100940004FF4004101F0E2F80346002BEBD1FB79B4
:100950009AB24FF4005300934348114601224FF0DE
:10096000807301F099F83F4B4FF420421A600BE07E
:100970003C4B1B685A1E3B490A60002B04D100F017
:100980001DF903469BB269E03748022101F0BEF829
:100990000346002BECD0BB793348194601F0A8F888
:1009A000304B4FF420421A600BE02E4B1B685A1E4E
:1009B0002C490A60002B04D100F000F903469BB2D9
:1009C0004CE02948802101F0A1F80346002BECD02F
:1009D000FB799AB2002300932348114601224FF07D
:1009E000007301F059F81F4B4FF420421A600BE0DE
:1009F0001C4B1B685A1E1B490A60002B04D100F0D7
:100A0000DDF803469BB229E01748022101F07EF889
:100A10000346002BECD03B681B781348194601F0C5
:100A200067F8104B4FF420421A600BE00D4B1B6827
:100A30005A1E0C490A60002B04D100F0BFF803468F
:100A40009BB20BE00848202101F060F80346002B20
:100A5000ECD00548202101F079F80023184608372A
:100A6000BD4680BD2C0000200054004080B58CB0F5
:100A700000AF4FF400100121FFF7D0FE4FF48020AB
:100A80000121FFF78FFE4FF400100121FFF78AFECE
:100A90004FF400100121FFF785FE4FF400100121F3
:100AA000FFF780FE41480621042200F09FFB3F48EB
:100AB0000721042200F09AFB022387F82C30002340
:100AC00087F82E30022387F82F30022387F82D3045
:100AD0004023BB6207F128033448194600F0F2FABC
:100AE0008023BB6207F128033048194600F0EAFA78
:100AF000002387F82C30002387F82E30002387F856
:100B00002F30022387F82D300423BB6207F128031E
:100B10002748194600F0D6FA0420022101F0B2FA63
:100B200002233B62002387F82430082387F825300E
:100B3000012387F8263007F12003184600F032FE23
:100B400000233B610023BB600023FB6000237B612B
:100B50000023BB610023FB61164B7B603B1D1648E5
:100B6000194600F019FF1448012100F079FF102305
:100B7000BB62002387F82C30002387F82E30022335
:100B800087F82D30002387F82F3007F12803084815
:100B9000194600F097FA2023BB6207F128030448A6
:100BA000194600F08FFA3037BD4680BD000400487A
:100BB00000100048252090000054004080B400AF91
:100BC000FEE700BF80B485B000AF786039600023D5
:100BD000FB607B68DB68FB60FA68194B1340FB60C5
:100BE0003B681A683B685B681A433B689B681A431A
:100BF0003B68DB681A433B681B691A433B685B69C7
:100C00001A433B689B691343FA681343FB607B6894
:100C1000FA68DA607B681B6BFB60FB6823F00F03EC
:100C2000FB603B681B7F013B1A46FB681343FB607C
:100C30007B68FA681A631437BD465DF8047B704719
:100C400007C0FFFD80B485B000AF78603960002335
:100C5000FB607B68B3F1A04F03D07B681C4A9342D2
:100C600007D11C4B9B68FB60FA681B4B1340FB6071
:100C700006E01A4B9B68FB60FA68174B1340FB6059
:100C80003B681A683B685B681A433B689B681A4379
:100C90003B68DB681B031A433B681B7C1B02134346
:100CA000FA681343FB607B68B3F1A04F03D07B6805
:100CB000074A934203D1074AFB68936002E0074A60
:100CC000FB6893601437BD465DF8047B704700BF36
:100CD0000001005000030050E010FCFF000700502E
:100CE00080B483B000AF78600B46FB70FB78002BBC
:100CF00006D07B689B6843F001027B689A6005E040
:100D00007B689B6843F002027B689A600C37BD46A3
:100D10005DF8047B704700BF80B483B000AF78609B
:100D20007B689B6843F000427B689A600C37BD4645
:100D30005DF8047B704700BF80B483B000AF78607B
:100D400039607B689B6823F080427B689A607B688F
:100D50009A683B681A437B689A600C37BD465DF819
:100D6000047B704780B485B000AF78600023FB73CC
:100D70007B689B68002B02DA0123FB7301E00023F0
:100D8000FB73FB7B18461437BD465DF8047B704748
:100D900080B483B000AF78600B46FB707B689B68C3
:100DA00023F040527B689A60FB78002B06D07B686A
:100DB0009B6843F080527B689A6005E07B689B6883
:100DC00043F000527B689A600C37BD465DF8047BA7
:100DD000704700BF80B485B000AF78600846114608
:100DE0001A460346FB700B46BB7013467B7000230C
:100DF000FB600023BB60BB78042B21D87B681B6B96
:100E0000FB60BA7813465B0013445B001A461F234D
:100E10009340BB60BB68DB43FA681340FB60F97822
:100E2000BA7813465B0013445B0001FA03F3BB601E
:100E3000FA68BB681343FB607B68FA681A6374E066
:100E4000BB78092B23D87B685B6BFB60BB785A1F90
:100E500013465B0013445B001A461F239340BB609C
:100E6000BB68DB43FA681340FB60F978BB785A1F14
:100E700013465B0013445B0001FA03F3BB60FA689E
:100E8000BB681343FB607B68FA685A634DE0BB782C
:100E90000E2B25D87B689B6BFB60BB78A3F10A0205
:100EA00013465B0013445B001A461F239340BB604C
:100EB000BB68DB43FA681340FB60F978BB78A3F1A9
:100EC0000A0213465B0013445B0001FA03F3BB60A4
:100ED000FA68BB681343FB607B68FA689A6324E096
:100EE0007B68DB6BFB60BB78A3F10F0213465B00F2
:100EF00013445B001A461F239340BB60BB68DB436F
:100F0000FA681340FB60F978BB78A3F10F0213462F
:100F10005B0013445B0001FA03F3BB60FA68BB6833
:100F20001343FB607B68FA68DA63FB78092B23D9EB
:100F30007B689B69FB60FB78A3F10A0213465B00A8
:100F40001344072202FA03F3BB607B689A69BB680B
:100F5000DB431A407B689A617B6899697878FB78F3
:100F6000A3F10A0213465B00134400FA03F341EABB
:100F700003027B689A611FE07B685B69FB60FB781A
:100F80005A1E13465B001344382202FA03F3BB6077
:100F90007B685A69BB68DB431A407B685A617B688F
:100FA00059697878FA7813465B00134400FA03F322
:100FB00041EA03027B685A611437BD465DF8047B41
:100FC000704700BF80B483B000AF78607B689B68D7
:100FD00043F004027B689A600C37BD465DF8047BE1
:100FE000704700BF80B483B000AF78607B681B6C33
:100FF0009BB218460C37BD465DF8047B704700BFB6
:1010000080B483B000AF78600B46FB70FB78002B98
:1010100006D07B68DB6843F001027B68DA6005E09C
:101020007B68DB6823F001027B68DA600C37BD4621
:101030005DF8047B704700BF80B485B000AFF860F6
:10104000B9601346FB71FB79002B06D0FB685A6828
:10105000BB681A43FB685A6006E0FB685A68BB68C5
:10106000DB431A40FB685A601437BD465DF8047BC9
:10107000704700BF80B485B000AF7860396000234E
:10108000FB737B681A683B681340002B02D0012376
:10109000FB7301E00023FB73FB7B18461437BD464E
:1010A0005DF8047B704700BF80B483B000AF786008
:1010B00039607B683A681A600C37BD465DF8047B7E
:1010C000704700BF80B487B000AF786039600023FC
:1010D0007B6100233B610023FB6000237B617CE09C
:1010E0007B69012202FA03F33B613B681A683B69A2
:1010F0001340FB60FA683B699A426BD13B681B79ED
:10110000012B03D03B681B79022B34D17B689A6892
:101110007B695B00194603238B40DB431A407B68E5
:101120009A607B689A683B685B7919467B695B00CB
:1011300001FA03F31A437B689A607B689B889AB232
:101140007B699BB2194601238B409BB2DB439BB268
:1011500013409AB27B689A807B689B889AB23B68FE
:101160009B7919467B699BB201FA03F39BB2134347
:101170009AB27B689A807B681A687B695B00194623
:1011800003238B40DB431A407B681A607B681A6834
:101190003B681B7919467B695B0001FA03F31A432C
:1011A0007B681A607B68DA687B699BB25B0003210D
:1011B00001FA03F3DB431A407B68DA607B68DA6884
:1011C0003B68DB7919467B695B0001FA03F31A433C
:1011D0007B68DA607B6901337B617B690F2B7FF66B
:1011E0007FAF1C37BD465DF8047B704780B485B087
:1011F00000AF78600B467B8013467B700023FB605A
:101200000023BB607B787A8802F00702920093404B
:10121000FB607B88DB089BB218467B88DB089BB2AF
:101220001A467B68083253F822207B8803F00703B4
:101230009B0019460F238B40DB4302EA03017B68C6
:1012400000F1080243F822107B88DB089BB21A46A3
:101250007B68083253F82220FB681343BB607B880D
:10126000DB089BB21A467B680832B96843F8221043
:101270001437BD465DF8047B704700BF80B582B06F
:1012800000AF4FF400200121FFF78CFA4FF400105B
:101290000121FFF787FA4FF480000121FFF782FA5E
:1012A00001233B710023BB710023FB7101237B7180
:1012B0004FF47F433B603B4606481946FFF702FF69
:1012C00004233B603B4604481946FFF7FBFE083702
:1012D000BD4680BD001000480014004880B500AF36
:1012E00000F02CF9074B00229A82064B054A928A9D
:1012F00092B291B20122120292B24A4092B292B2DA
:101300009A82F2E70010004880B483B000AF7860A2
:101310007B681A684FF6FE7313407A6813607B6827
:1013200000221A607B6800225A607B6800229A6063
:101330007B680022DA607B68434A934206D1434AC5
:10134000424B5B6843F00F03536077E07B68404A91
:10135000934206D13D4A3D4B5B6843F0F003536036
:101360006CE07B683B4A934206D1384A374B5B6856
:1013700043F47063536061E07B68374A934206D15F
:10138000324A324B5B6843F47043536056E07B68EB
:10139000324A934206D12D4A2C4B5B6843F47023AA
:1013A00053604BE07B682E4A934206D1274A274B75
:1013B0005B6843F47003536040E07B68294A9342C2
:1013C00006D1224A214B5B6843F07063536035E0DD
:1013D0007B68254A934206D1244A244B5B6843F03C
:1013E0000F0353602AE07B68214A934206D11F4ACB
:1013F0001E4B5B6843F0F00353601FE07B681D4A9F
:10140000934206D1194A194B5B6843F470635360E9
:1014100014E07B68184A934206D1144A134B5B6868
:1014200043F47043536009E07B68144A934205D14A
:101430000E4A0E4B5B6843F4702353600C37BD4675
:101440005DF8047B704700BF0800024000000240C6
:101450001C0002403000024044000240580002409C
:101460006C00024080000240080402400004024078
:101470001C0402403004024044040240580402406C
:1014800080B485B000AF78600023FB730023BB609D
:101490007B6803F08053002B03D00C4B1B68BB60B0
:1014A00002E00B4B1B68BB60BA687B681340002BE3
:1014B00002D00123FB7301E00023FB73FB7B184682
:1014C0001437BD465DF8047B704700BF000402403E
:1014D0000000024080B483B000AF78607B6803F006
:1014E0008053002B03D0064A7B68536002E0054A14
:1014F0007B6853600C37BD465DF8047B704700BFC6
:10150000000402400000024080B483B000AF786065
:101510007B6803F08053002B03D0064A7B6853603E
:1015200002E0054A7B6853600C37BD465DF8047BDA
:10153000704700BF000402400000024080B500AFC9
:10154000FFF79CFEFEF760FE00F00CF800F006FED0
:1015500000F00AFB01F020FA01F0D6F801F01CF9C6
:1015600080BD00BF80B58CB000AF4FF0007001218E
:10157000FFF754F94FF480100121FFF713F94E489B
:1015800000210722FFF732FE4B4801210722FFF717
:101590002DFE03233B62022387F82430032387F8C0
:1015A0002530002387F82630012387F8273007F1FC
:1015B000200341481946FFF785FD404800F030FE02
:1015C0000023BB760023FB7600233B7700237B7749
:1015D0000023BB770023FB770023BB750323FB7538
:1015E0000A233B7605237B760423BB82344B4FF4DE
:1015F00080729A8207F114033048194600F022FEE7
:10160000034687F82B3097F82B30012B04D12C4B55
:101610004FF47F429A8203E0294B4FF488429A822A
:10162000284BFB6200BFFB6A5A1EFA62002BFAD1FC
:101630000023BB730123FB7300233B744FF6E0735D
:10164000FB804FF6E0737B8146F22003BB804FF6B0
:10165000E0733B810023BB8101237B743B1D184653
:1016600000F0C2FE15480221012201F02FF81423D8
:101670003B7000237B700023BB700123FB703B4653
:10168000184600F039FB104B00221A720E4B40F244
:1016900001321A600C4B00225A600B4B00225A7226
:1016A000094B00221A72084B01229A72064B002243
:1016B000DA723037BD4680BD000C0048006400403F
:1016C00000100048FFFF0F004000002090B583B0DD
:1016D00000AF1C4800211C4A00F040FF1A4B9B7AC7
:1016E000FB71FB79002B00D128E00FE0164BDB7C6F
:1016F0001C46FB79013BFA79013A13490A44D07A36
:101700001249E20013440B4402461A70FB795A1E38
:10171000FA71002BEAD10E4B1B780133DAB20C4B75
:101720001A700C4B0B4A928A92B291B20A4A127802
:10173000120292B24A4092B292B29A820C37BD46DD
:1017400090BD00BF006400406C00002080000020BD
:101750005400002000100048D52F000880B400AFCE
:10176000034B1B781846BD465DF8047B704700BFED
:101770005400002080B483B000AF03460A46FB71DA
:101780001346BB71FA79BB790549D20013440B4467
:101790001B7818460C37BD465DF8047B704700BFC8
:1017A0008000002080B485B000AF78600023FB602B
:1017B000754BFB607B689B79002B00F0C8807B68D1
:1017C0001B685B0903F1007303F502635B011846B4
:1017D0007B681B685B0903F1007303F502635B011F
:1017E0001A687B681B6803F01F03012101FA03F3E9
:1017F000DB43134003607B681B685B095A01634B42
:10180000134418467B681B685B095A015F4B1344FD
:101810001A687B681B6803F01F03012101FA03F3B8
:10182000DB43134003607B681B791A467B681B68A7
:101830005B095B011344FA681344FB60FB68FA68B8
:1018400012687968096801F01F01012000FA01F1AE
:101850000A431A604C4BFB607B681B685B095A01AA
:101860004B4B134418467B681B685B095A01484B75
:1018700013441A687B681B6803F01F03012101FAF7
:1018800003F3DB43134003607B681B685B095A0169
:10189000404B134418467B681B685B095A013D4B5B
:1018A00013441A687B681B6803F01F03012101FAC7
:1018B00003F3DB43134003607B685B79102B2ED16D
:1018C0007B681B685B095A01314B134418467B68DF
:1018D0001B685B095A012E4B13441B687A68126817
:1018E00002F01F02012101FA02F2134303607B6838
:1018F0001B685B095A01274B134418467B681B6819
:101900005B095A01234B13441B687A68126802F082
:101910001F02012101FA02F2134303602FE07B68EA
:101920005B791A467B681B685B095B011344FA68A4
:101930001344FB60FB68FA6812687968096801F073
:101940001F01012000FA01F10A431A6017E07B68C9
:101950001B791A467B681B685B095B011344FA68B4
:101960001344FB60FB68FA6811687A68126802F039
:101970001F02012000FA02F2D2430A401A60143713
:10198000BD465DF8047B704700040140040401403B
:10199000080401400C04014080B485B000AF7860B9
:1019A00039600023FB607B681B6823F001027B68C1
:1019B0001A607B681B68FB60FA68284B1340FB6069
:1019C0003B685A683B689B681B021343FA681343E1
:1019D000FB607B68FA681A603B681B6823F07062E2
:1019E0007B681A617B681B6843F001027B681A60A0
:1019F0000023FB607B68FA689A607B68FA68DA60AB
:101A00003B689A693B681B691343FB607B68FA6813
:101A10009A607B689B6843F400427B689A603B68ED
:101A2000DB68FB607B681A68FB681A437B681A6096
:101A30007B685B68FB60FB6823F0784323F400431A
:101A4000FB603B685B69FA681343FB607B68FA687C
:101A50005A601437BD465DF8047B7047FFE0CF0045
:101A600080B483B000AF78600B46FB70FB78002B2E
:101A700006D07B681B6843F001027B681A6005E0B2
:101A80007B681B6823F001027B681A600C37BD4637
:101A90005DF8047B704700BF80B487B000AFF8608A
:101AA0007B600B467B8113467B7200237B61FB6866
:101AB0005B687B617A690D4B13407B617B89C3F363
:101AC00009027B7A1B0403F47F031A437B681A43E1
:101AD0003B6A13437A6913437B61FB687A695A60F6
:101AE0001C37BD465DF8047B704700BF009800FCC2
:101AF00080B483B000AF78600B46FB70FA787B68E7
:101B00009A620C37BD465DF8047B704780B485B09F
:101B100000AF786039600023BB600023FB737B68F3
:101B20009B69BB60BA683B681340BB60BB68002B15
:101B300002D00123FB7301E00023FB73FB7B1846FB
:101B40001437BD465DF8047B704700BF80B483B096
:101B500000AF786039607B683A68DA610C37BD465F
:101B60005DF8047B704700BF80B582B000AF0023F2
:101B70003B7050237B700723BB700023BB7108238D
:101B8000FB700023FB7000237B713B461846FEF779
:101B900081FE0837BD4680BD80B500AF1A4A1A4B9A
:101BA0001B6843F0010313601749174B5A68174B22
:101BB00013404B60144A144B1B6823F0847323F4C6
:101BC00080331360104A104B1B6823F4802313608A
:101BD0000D4A0D4B5B6823F4FE0353600A4A0A4B1F
:101BE000DB6A23F00F03D3620749074B1A6B084BDC
:101BF00013400B63044B00229A6000F00DF8054B74
:101C00004FF000629A6080BD001002400CC07FF867
:101C1000CCFC00FF00ED00E080B483B000AF0023F7
:101C20007B6000233B60324A314B1B6843F48033B6
:101C300013602F4B1B6803F400333B607B68013358
:101C40007B603B68002B03D17B68B3F5A06FF0D1BC
:101C5000274B1B6803F40033002B02D001233B60A9
:101C600001E000233B603B68012B3CD1214B122259
:101C70001A601F4A1E4B5B6853601D4A1C4B5B6811
:101C800053601B4A1A4B5B6843F480635360184AE5
:101C9000174B5B6823F47C135360154A144B5B6845
:101CA00043F4E8135360124A114B1B6843F08073EE
:101CB000136000BF0E4B1B6803F00073002BF9D0BC
:101CC0000B4A0B4B5B6823F003035360084A084B35
:101CD0005B6843F00203536000BF054B5B6803F091
:101CE0000C03082BF9D10C37BD465DF8047B704717
:101CF000001002400020024080B487B000AF78603E
:101D000000237B6100233B610F23FB607B68DB7852
:101D1000002B3AD0274BDB68DB4303F4E0631B0A5C
:101D20007B617B69C3F104033B617B69FA6822FA3A
:101D300003F3FB607B685B781A463B6902FA03F3A6
:101D40007B617B689B781A46FB6813407A69134372
:101D50007B617B691B017B61174A7B681B78796912
:101D6000C9B213440A4683F80023134A7B681B78E0
:101D70005B09DBB218467B681B7803F01F03012167
:101D800001FA03F342F820300FE00B497B681B781F
:101D90005B09DBB218467B681B7803F01F03012246
:101DA0009A4000F1200341F823201C37BD465DF81E
:101DB000047B704700ED00E000E100E080B485B0F6
:101DC00000AF786039600023FB817B681B88FB8152
:101DD0007B682C4A93420FD07B682B4A93420BD0EE
:101DE0007B68B3F1804F07D07B68284A934203D0C9
:101DF0007B68274A934208D1FB8923F07003FB815B
:101E00003B685A88FB891343FB817B68214A9342D4
:101E10000CD07B68204A934208D0FB8923F440739E
:101E2000FB813B681A89FB891343FB817B68FA8934
:101E30001A803B685A687B68DA623B681A887B685C
:101E40001A857B680F4A93420FD07B680E4A9342F3
:101E50000BD07B68114A934207D07B68104A9342AB
:101E600003D07B680F4A934204D13B689B7A9AB2B5
:101E70007B681A867B6801225A611437BD465DF87B
:101E8000047B7047002C01400034014000040040F6
:101E900000080040001000400014004000400140D5
:101EA000004401400048014080B483B000AF786036
:101EB0000B46FB70FB78002B08D07B681B889BB21D
:101EC00043F001039AB27B681A8007E07B681B88A5
:101ED0009BB223F001039AB27B681A800C37BD468F
:101EE0005DF8047B704700BF80B487B000AF7860B6
:101EF00039600023FB6000237B6100233B617B682A
:101F00001B6A23F001027B681A627B681B6A7B6193
:101F10007B685B683B617B689B69FB60FB6823F4C3
:101F2000803323F07003FB60FB6823F00303FB6046
:101F30003B681B68FA681343FB607B6923F002036C
:101F40007B613B689B891A467B6913437B613B68D5
:101F50009B881A467B6913437B617B68264A9342C0
:101F60000FD07B68254A93420BD07B68244A93426A
:101F700007D07B68234A934203D07B68224A93426E
:101F800027D17B6923F008037B613B68DB891A4614
:101F90007B6913437B617B6923F004037B613B68AE
:101FA000DB881A467B6913437B613B6923F48073AA
:101FB0003B613B6923F400733B613B681B8A1A4613
:101FC0003B6913433B613B685B8A1A463B69134399
:101FD0003B617B683A695A607B68FA689A613B6842
:101FE0009A687B685A637B687A691A621C37BD46B7
:101FF0005DF8047B704700BF002C014000340140B5
:1020000000400140004401400048014080B483B0DA
:1020100000AF78600B467B807B685A684FF68F7301
:1020200013407A6853607B685A687B881A437B68E0
:102030005A600C37BD465DF8047B7047002103E011
:102040000A4B5B584350043109480A4B42189A42E4
:10205000F6D3094A02E0002342F8043B074B9A42B8
:10206000F9D3FFF799FDFFF739F97047DB2F000827
:10207000000000203000002030000020040100207B
:10208000FEE7000090B484B000AF03460A46FB713F
:102090001346BB710023FB60BB7903F003039B0075
:1020A0000F2202FA03F3FB601649BB799B08DBB2EF
:1020B0001846144ABB799B08DBB2023352F823203E
:1020C000FB68DB431A40831C41F823200D48BB7991
:1020D0009B08DBB21C460B4ABB799B08DBB2023380
:1020E00052F82320F979BB7903F003039B0001FA2E
:1020F00003F31A43A31C40F823201037BD4690BCBD
:10210000704700BF0000014080B483B000AF0346B9
:102110003960FB7197F90730002B0BDA0D49FB7919
:1021200003F00F03043B3A68D2B21201D2B20B445F
:102130001A7609E0084997F907303A68D2B21201D5
:10214000D2B20B4483F800230C37BD465DF8047B04
:10215000704700BF00ED00E000E100E080B500AF97
:102160004FF0FF300121FFF7CFFF064B00221A602E
:10217000044B054A5A60034B00229A60014B072228
:102180001A6080BD10E000E04019010080B500AF8A
:10219000204B1B780133DAB21E4B1A70FFF7DEFAC0
:1021A0000346002B10D002200021FFF7E3FA03467C
:1021B0001A460123934018021749174B9B8A9AB27B
:1021C00083B253409BB28B820120FFF759F903463B
:1021D000002B0AD0104A104B9B8A9BB283F4806379
:1021E0009BB293820120FFF775F90A4B1B78642B91
:1021F0000FD9094B084A928A92B291B2074A1278D3
:10220000120292B24A4092B292B29A82014B0022DA
:102210001A7080BD5800002000100048D42F00081C
:1022200080B582B000AF78604FF000700121FEF7FA
:1022300013FB4FF000700021FEF70EFB0837BD4680
:1022400080BD00BF80B485B000AF786039600023E6
:10225000FB730023BB607B681B6823F002027B6872
:102260001A607B681B6843F001027B681A6002E019
:10227000BB680133BB607B685B6803F00103002B24
:1022800004D1BB686FF07F429342F1D17B685B68F9
:1022900003F00103002B02D10023FB739CE03B6899
:1022A0009B79012B06D17B681B6843F080027B6819
:1022B0001A6005E07B681B6823F080027B681A6067
:1022C0003B68DB79012B06D17B681B6843F0400239
:1022D0007B681A6005E07B681B6823F040027B681E
:1022E0001A603B681B7A012B06D17B681B6843F0A0
:1022F00020027B681A6005E07B681B6823F02002DF
:102300007B681A603B685B7A012B06D17B681B688F
:1023100043F010027B681A6005E07B681B6823F0BD
:1023200010027B681A603B689B7A012B06D17B68A0
:102330001B6843F008027B681A6005E07B681B6835
:1023400023F008027B681A603B68DB7A012B06D118
:102350007B681B6843F004027B681A6005E07B68B9
:102360001B6823F004027B681A603B689B789A071D
:102370003B68DB781B061A433B681B791B041A4336
:102380003B685B791B051A433B681B88013B1A437A
:102390007B68DA617B681B6823F001027B681A6046
:1023A0000023BB6002E0BB680133BB607B685B68F5
:1023B00003F00103002B04D0BB686FF07F4293420F
:1023C000F1D17B685B6803F00103002B02D000238E
:1023D000FB7301E00123FB73FB7B18461437BD46FA
:1023E0005DF8047B704700BF80B485B000AF7860B3
:1023F0000023FB607B689B7A1A4601239340FB60B5
:10240000554A554BD3F8003243F00103C2F800326D
:102410005149514BD3F81C22FB68DB431340C1F8F0
:102420001C327B681B7B002B25D14B494A4BD3F8D0
:102430000C22FB68DB431340C1F80C3246497B6831
:102440009B7A18467B68DB881B047A6852881A439B
:1024500000F1480341F833203F497B689B7A1846D6
:102460007B689B881B047A6812881A4300F1480332
:10247000DB000B445A607B681B7B012B24D136495F
:10248000354BD3F80C22FB681343C1F80C323249A8
:102490007B689B7A18467B681B881B047A68528885
:1024A0001A4300F1480341F833202B497B689B7A9B
:1024B00018467B689B881B047A68D2881A4300F10F
:1024C0004803DB000B445A607B68DB7A002B09D1A0
:1024D0002149214BD3F80422FB68DB431340C1F8A8
:1024E000043207E01C491C4BD3F80422FB68134359
:1024F000C1F804327B681B89002B08D11649164BA2
:10250000D3F81422FB68DB431340C1F814327B6814
:102510001B89012B07D110490F4BD3F81422FB68FC
:102520001343C1F814327B685B7B012B07D10A4946
:10253000094BD3F81C22FB681343C1F81C32064A2E
:10254000054BD3F8003223F00103C2F800321437F0
:10255000BD465DF8047B70470064004080B485B0E0
:1025600000AFF8600B467A60FB72FB7AFA681B33A7
:102570001B0113441B68DBB203F00403DAB27B686F
:102580001A727B681B7A002B09D1FB7AFA681B331D
:102590001B0113441B685A0D7B681A6008E0FB7A24
:1025A000FA681B331B0113441B68DA087B685A6006
:1025B000FB7AFA681B331B0113441B68DBB203F080
:1025C0000203DAB27B685A72FB7AFA681B331B018A
:1025D00013445B68DBB203F00F03DAB27B689A72D4
:1025E000FB7AFA681B331B0113445B681B0ADAB2DF
:1025F0007B68DA74FB7AFA681B01134403F5DC7319
:102600001B68DAB27B68DA72FB7AFA681B01134442
:1026100003F5DC731B681B0ADAB27B681A73FB7A5A
:10262000FA681B01134403F5DC731B681B0CDAB258
:102630007B685A73FB7AFA681B01134403F5DC7359
:102640001B681B0EDAB27B689A73FB7AFA681B016F
:10265000134403F5DC735B68DAB27B68DA73FB7AE8
:10266000FA681B01134403F5DC735B681B0ADAB2DA
:102670007B681A74FB7AFA681B01134403F5DC7358
:102680005B681B0CDAB27B685A74FB7AFA681B0130
:10269000134403F5DC735B681B0EDAB27B689A7433
:1026A000FB7A002B06D1FB68DB6843F02002FB6855
:1026B000DA6005E0FB681B6943F02002FB681A61E1
:1026C0001437BD465DF8047B704700BF80B485B009
:1026D00000AFF860B9601346FB71FB79002B06D0A0
:1026E000FB685A69BB681A43FB685A6106E0FB68DD
:1026F0005A69BB68DB431A40FB685A611437BD4610
:102700005DF8047B704700BF80B58AB000AF04203D
:102710000121FEF783F84FF480100121FEF742F803
:102720004FF480533B6002233B7101237B710023F4
:10273000FB713B4616481946FEF7C4FC14480C21B1
:102740000222FEF753FD44F250633B620023BB8339
:102750000023BB840023FB8307F11C030D481946AB
:10276000FFF72CFB6023BB600123BB8142F22833BF
:102770003B610223BB8207F1080306481946FFF7B5
:10278000B3FB04480121FFF78FFB2837BD4680BD0E
:10279000000C00480008004080B584B000AF012064
:1027A0000121FEF71DF801200121FEF737F80D4B3E
:1027B000BB604823BB800023BB810023FB803B1D03
:1027C0004FF080401946FFF7F9FA4FF08040202182
:1027D000FFF71CFC4FF080400121FFF765FB10372D
:1027E000BD4680BD9F86010080B500AF0E4B0E4AEE
:1027F000928A92B291B20D4A1278120292B24A4073
:1028000092B292B29A820A4B1B88DBB21846FDF74D
:1028100067FD084B1B7843F00F03DAB2054B1A70C3
:102820000220FEF771FE80BD00100048D92F00087D
:10283000640000206000002098B500AF4FF0A04079
:102840000421FEF717FC0346002B46D0304B042230
:102850009A82304B1B781C464FF0A040FEF7C2FB1B
:1028600003461A4647F2305303FB02F3002B01DA0A
:1028700003F6FF731B139AB2274B23F81420254B42
:102880001B781A4601239340DAB2244B1B7813437A
:10289000DAB2224B1A70224B214A928A92B291B23A
:1028A000204A1278120292B24A4092B292B29A82AE
:1028B000184B1B780133DAB2164B1A70154B1B7884
:1028C000032B02D9134B00221A704FF0A0400421B1
:1028D000FEF7EAFB0E4B00229A824FF0A04008213F
:1028E000FEF7C8FB0346002B11D00D4B0C4A928A11
:1028F00092B291B20C4A1278120292B24A4092B24B
:1029000092B29A824FF0A0400821FEF7CDFB98BD0D
:1029100000140048610000206400002060000020D6
:1029200000100048D92F0008D82F000880B500AF4C
:102930001448FEF757FB03461A4647F2305303FB91
:1029400002F3002B01DA03F6FF731B139AB20E4B4E
:102950001A800E4B1B7843F01003DAB20B4B1A703F
:102960000B4B0B4A928A92B291B20A4A1278120227
:1029700092B24A4092B292B29A8202480421FEF781
:1029800093FB80BD00050050000100206000002086
:1029900000100048DA2F000880B592B000AF4FF465
:1029A0008070FDF7D9FE9448FDF7D6FE4FF08050B9
:1029B0000121FDF7F7FE4FF000500121FDF7F2FE77
:1029C0004FF480200121FDF7EDFE4FF4002001219E
:1029D000FDF7E8FE01200121FDF7E4FE4FF48053EE
:1029E0003B64032387F84430002387F8473007F11E
:1029F000400382481946FEF765FB0F233B6407F14D
:102A000040037F481946FEF75DFB4FF0A0400121CF
:102A1000FEF7BEF97B480121FEF7BAF94FF4B37314
:102A20007B8100BF7B899BB25A1E92B27A81002BB8
:102A3000F8D14FF0A0400021FEF77EF94FF0A04002
:102A4000FEF76AF900BF4FF0A040FEF78BF903468E
:102A5000002BF8D16B480021FEF76EF96948FEF7AC
:102A60005BF900BF6748FEF77DF90346002BF9D1FB
:102A70000023FB6000233B6100237B610223BB61D9
:102A800064233B7707F10C035E481946FEF7DAF83A
:102A900007F10C034FF0A0401946FEF7D3F80023CE
:102AA0003B6200237B624FF48063FB6200233B6345
:102AB00000237B630023BB634FF43073BB620423AA
:102AC00087F83C3007F120034FF0A0401946FEF78D
:102AD00079F84FF4E073BB62012387F83C3007F1CB
:102AE000200348481946FEF76DF800237B71002348
:102AF000BB710123FB713B1D1846FFF7FDF83D2319
:102B00003B713B1D1846FFF7F7F83E4804210122B0
:102B1000FEF792FA4FF0A040082101220523FEF7AC
:102B200059F94FF0A040062103220523FEF752F980
:102B30004FF0A040072102220523FEF74BF94FF08A
:102B4000A040092104220523FEF744F92D48032162
:102B500001220523FEF73EF94FF0A0400121FEF7C8
:102B6000BFF828480121FEF7BBF800BF4FF0A04096
:102B70000121FEF77FFA0346002BF7D000BF214862
:102B80000121FEF777FA0346002BF8D01E48FEF726
:102B9000BBFB1D4B1D4A9A601B4B1D4ADA601A4B4A
:102BA00004225A60184A184B1B6843F4165343F02A
:102BB00022031360144A144B1B6843F00103136093
:102BC00000237B710023BB710123FB710B233B713D
:102BD0003B1D1846FFF790F84FF0A0400121FEF78B
:102BE0000FFA4FF0A040FEF7EDF90648FEF7EAF9BC
:102BF0004837BD4680BD00BF0020001000040048DB
:102C00000008004800050050080002404000005045
:102C10006400002080B594B000AF78603960002374
:102C2000FB640023BB6400237B647B681B6823F088
:102C300001027B681A607B685B687B647B6C23F4B1
:102C400040537B643B689B687A6C13437B647B686E
:102C50007A6C5A607B681B687B647B6C23F4B0538E
:102C600023F00C037B643B685A683B68DB681A43BB
:102C70003B681B6913437A6C13437B647B687A6CF3
:102C80001A607B689B687B647B6C23F440737B6475
:102C90003B685B697A6C13437B647B687A6C9A60EF
:102CA00007F108031846FDF74DFB7B68324A934253
:102CB00002D13B6BBB6416E07B68304A934202D181
:102CC0007B6BBB640FE07B682D4A934202D1BB6BE8
:102CD000BB6408E07B682B4A934202D1FB6BBB6468
:102CE00001E03B6CBB647B681B6803F40043002B72
:102CF00011D0BB6C5A003B681B68B2FBF3F3FB645A
:102D0000BB6C5B003A681268B3FBF2F102FB01F2A4
:102D10009B1A7B640EE03B681B68BA6CB2FBF3F352
:102D2000FB643B681A68BB6CB3FBF2F102FB01F277
:102D30009B1A7B643B681B685A087B6C9A4202D8DA
:102D4000FB6C0133FB647B681B6803F40043002BBE
:102D50000BD0FB6C03F00F035B087B64FA6C4FF63F
:102D6000F07313407A6C1343FB64FB6C9AB27B687C
:102D70009A815037BD4680BD003801400044004074
:102D800000480040004C004080B485B000AF78603F
:102D900039600023FB607B685B68FB60FB6823F4A1
:102DA0007063FB603B681A683B685B681A433B686A
:102DB0009B681A433B68DB681343FA681343FB6064
:102DC0007B68FA685A601437BD465DF8047B70472B
:102DD00080B483B000AF78607B6800221A607B68A3
:102DE00000225A607B6800229A607B680022DA60C9
:102DF0000C37BD465DF8047B704700BF80B483B0DC
:102E000000AF78600B46FB70FB78002B06D07B6828
:102E10001B6843F001027B681A6005E07B681B6851
:102E200023F001027B681A600C37BD465DF8047B15
:102E3000704700BF80B483B000AF78600B467B80E2
:102E40007B88C3F308039AB27B681A850C37BD46AA
:102E50005DF8047B704700BF80B483B000AF78603A
:102E60007B689B8C9BB2C3F308039BB218460C375C
:102E7000BD465DF8047B704780B489B000AFF86050
:102E8000B9601346FB710023BB6100237B61002303
:102E90003B610023FB61FB68FB61BB689BB21B0AC3
:102EA0009BB2BB61BB68DBB27B617B69012202FA2A
:102EB00003F33B61BB69022B03D1FB690433FB6164
:102EC00005E0BB69032B02D1FB690833FB61FB7989
:102ED000002B06D0FB69FA6911683A690A431A6047
:102EE00006E0FB69FA6911683A69D2430A401A6040
:102EF0002437BD465DF8047B704700BF80B485B0C1
:102F000000AF786039600023FB737B68DA693B6847
:102F10001340002B02D00123FB7301E00023FB735D
:102F2000FB7B18461437BD465DF8047B704700BF35
:102F300080B487B000AF786039600023FB60002365
:102F40007B610023BB600023FB743B689BB21B0AC0
:102F50009BB2BB603B68DBB27B617B69012202FAFA
:102F600003F37B61BB68012B05D17B681B687A6921
:102F700013407B610DE0BB68022B05D17B685B6869
:102F80007A6913407B6104E07B689B687A6913402F
:102F90007B613B681B0CFB60FB68012202FA03F3B8
:102FA000FB607B68DB69FA681340FB607B69002B80
:102FB00005D0FB68002B02D00123FB7401E0002345
:102FC000FB74FB7C18461C37BD465DF8047B7047DC
:0B2FD0000001020102040810204080F4
:102FDB0000000000010203040102030406070809B4
:102FEB000000010002000400060008000A000C00AB
:102FFB0010002000400080000001000000A0000035
:0400000508000000EF
:00000001FF
